{
  "transactions": [
    {
      "hash": "0x76712d40ee9f876bf76cd68f0f56a8fd05f5b8be42d9eda5ed6696bdf10ad199",
      "transactionType": "CREATE",
      "contractName": "B",
      "contractAddress": "0x0f22b52f2c30e663cd2ac4a8db1c518d6d30fd8a",
      "function": null,
      "arguments": null,
      "transaction": {
        "from": "0x9af3222298432fae397a26af2c57b5e7412e82bb",
        "value": "0x0",
        "input": "0x6080604052348015600e575f5ffd5b506102748061001c5f395ff3fe60806040526004361061003e575f3560e01c80633fa4f245146100425780634e70b1dc1461006c5780636466414b1461009657806367e404ce146100b2575b5f5ffd5b34801561004d575f5ffd5b506100566100dc565b6040516100639190610174565b60405180910390f35b348015610077575f5ffd5b506100806100e2565b60405161008d9190610174565b60405180910390f35b6100b060048036038101906100ab91906101bb565b6100e7565b005b3480156100bd575f5ffd5b506100c6610137565b6040516100d39190610225565b60405180910390f35b60025481565b5f5481565b805f819055503360015f6101000a81548173ffffffffffffffffffffffffffffffffffffffff021916908373ffffffffffffffffffffffffffffffffffffffff1602179055503460028190555050565b60015f9054906101000a900473ffffffffffffffffffffffffffffffffffffffff1681565b5f819050919050565b61016e8161015c565b82525050565b5f6020820190506101875f830184610165565b92915050565b5f5ffd5b61019a8161015c565b81146101a4575f5ffd5b50565b5f813590506101b581610191565b92915050565b5f602082840312156101d0576101cf61018d565b5b5f6101dd848285016101a7565b91505092915050565b5f73ffffffffffffffffffffffffffffffffffffffff82169050919050565b5f61020f826101e6565b9050919050565b61021f81610205565b82525050565b5f6020820190506102385f830184610216565b9291505056fea26469706673582212203060c8abeedc84b325abe51f243d4189c9b8815f49e6870a88287ab67fc95de964736f6c634300081d0033",
        "nonce": "0x0",
        "chainId": "0xaa36a7"
      },
      "additionalContracts": [],
      "isFixedGasLimit": false
    },
    {
      "hash": "0x30154d7e49d886d2bed75b2be34fd2fa258016aa2b72083602d65d0027b020bc",
      "transactionType": "CREATE",
      "contractName": "A",
      "contractAddress": "0x56e62002b7dc36e2d62bf00b332df677b907fbb2",
      "function": null,
      "arguments": null,
      "transaction": {
        "from": "0x9af3222298432fae397a26af2c57b5e7412e82bb",
        "value": "0x0",
        "input": "0x6080604052348015600e575f5ffd5b506105fd8061001c5f395ff3fe608060405260043610610049575f3560e01c80633ab6ee761461004d5780633fa4f245146100695780634e70b1dc1461009357806367e404ce146100bd578063b6b204ef146100e7575b5f5ffd5b61006760048036038101906100629190610431565b610103565b005b348015610074575f5ffd5b5061007d610238565b60405161008a919061047e565b60405180910390f35b34801561009e575f5ffd5b506100a761023e565b6040516100b4919061047e565b60405180910390f35b3480156100c8575f5ffd5b506100d1610243565b6040516100de91906104a6565b60405180910390f35b61010160048036038101906100fc9190610431565b610268565b005b5f5f8373ffffffffffffffffffffffffffffffffffffffff168360405160240161012d919061047e565b6040516020818303038152906040527f6466414b000000000000000000000000000000000000000000000000000000007bffffffffffffffffffffffffffffffffffffffffffffffffffffffff19166020820180517bffffffffffffffffffffffffffffffffffffffffffffffffffffffff83818316178352505050506040516101b79190610511565b5f60405180830381855af49150503d805f81146101ef576040519150601f19603f3d011682016040523d82523d5f602084013e6101f4565b606091505b50915091507fee76f3f0dd1ac96e2e6922fa3b2c15c43bc8b4ebabf5e8f93201ece965b41b6d828260405161022a929190610599565b60405180910390a150505050565b60025481565b5f5481565b60015f9054906101000a900473ffffffffffffffffffffffffffffffffffffffff1681565b5f5f8373ffffffffffffffffffffffffffffffffffffffff163484604051602401610293919061047e565b6040516020818303038152906040527f6466414b000000000000000000000000000000000000000000000000000000007bffffffffffffffffffffffffffffffffffffffffffffffffffffffff19166020820180517bffffffffffffffffffffffffffffffffffffffffffffffffffffffff838183161783525050505060405161031d9190610511565b5f6040518083038185875af1925050503d805f8114610357576040519150601f19603f3d011682016040523d82523d5f602084013e61035c565b606091505b50915091507fc76e544076e6c58f2f3aeefd71e38b40ed70411823aedb3be5e966a2030136e58282604051610392929190610599565b60405180910390a150505050565b5f5ffd5b5f73ffffffffffffffffffffffffffffffffffffffff82169050919050565b5f6103cd826103a4565b9050919050565b6103dd816103c3565b81146103e7575f5ffd5b50565b5f813590506103f8816103d4565b92915050565b5f819050919050565b610410816103fe565b811461041a575f5ffd5b50565b5f8135905061042b81610407565b92915050565b5f5f60408385031215610447576104466103a0565b5b5f610454858286016103ea565b92505060206104658582860161041d565b9150509250929050565b610478816103fe565b82525050565b5f6020820190506104915f83018461046f565b92915050565b6104a0816103c3565b82525050565b5f6020820190506104b95f830184610497565b92915050565b5f81519050919050565b5f81905092915050565b8281835e5f83830152505050565b5f6104eb826104bf565b6104f581856104c9565b93506105058185602086016104d3565b80840191505092915050565b5f61051c82846104e1565b915081905092915050565b5f8115159050919050565b61053b81610527565b82525050565b5f82825260208201905092915050565b5f601f19601f8301169050919050565b5f61056b826104bf565b6105758185610541565b93506105858185602086016104d3565b61058e81610551565b840191505092915050565b5f6040820190506105ac5f830185610532565b81810360208301526105be8184610561565b9050939250505056fea2646970667358221220ee58d96868d199252cd58283afab80ccb86798dc5d54b239176b1ec4c305be4e64736f6c634300081d0033",
        "nonce": "0x1",
        "chainId": "0xaa36a7"
      },
      "additionalContracts": [],
      "isFixedGasLimit": false
    },
    {
      "hash": "0xab62da85a636726f1efebacedcdb5df5316f7531158cfd6711d4ac9bad8870b4",
      "transactionType": "CALL",
      "contractName": "A",
      "contractAddress": "0x56e62002b7dc36e2d62bf00b332df677b907fbb2",
      "function": "setVarsCall(address,uint256)",
      "arguments": [
        "0x0f22B52F2C30e663cd2ac4A8dB1c518D6d30fd8A",
        "20"
      ],
      "transaction": {
        "from": "0x9af3222298432fae397a26af2c57b5e7412e82bb",
        "to": "0x56e62002b7dc36e2d62bf00b332df677b907fbb2",
        "value": "0x2386f26fc10000",
        "input": "0xb6b204ef0000000000000000000000000f22b52f2c30e663cd2ac4a8db1c518d6d30fd8a0000000000000000000000000000000000000000000000000000000000000014",
        "nonce": "0x2",
        "chainId": "0xaa36a7"
      },
      "additionalContracts": [],
      "isFixedGasLimit": false
    },
    {
      "hash": "0xea1a6b4c10f29182aa17bdc38af659e60a11db58ceafd360d0734cc255d74d26",
      "transactionType": "CALL",
      "contractName": "A",
      "contractAddress": "0x56e62002b7dc36e2d62bf00b332df677b907fbb2",
      "function": "setVarsDelegateCall(address,uint256)",
      "arguments": [
        "0x0f22B52F2C30e663cd2ac4A8dB1c518D6d30fd8A",
        "99"
      ],
      "transaction": {
        "from": "0x9af3222298432fae397a26af2c57b5e7412e82bb",
        "to": "0x56e62002b7dc36e2d62bf00b332df677b907fbb2",
        "value": "0x2386f26fc10000",
        "input": "0x3ab6ee760000000000000000000000000f22b52f2c30e663cd2ac4a8db1c518d6d30fd8a0000000000000000000000000000000000000000000000000000000000000063",
        "nonce": "0x3",
        "chainId": "0xaa36a7"
      },
      "additionalContracts": [],
      "isFixedGasLimit": false
    }
  ],
  "receipts": [
    {
      "status": "0x1",
      "cumulativeGasUsed": "0x14c1752",
      "logs": [],
      "logsBloom": "0x00000000000000000000000000000000000000000000000000000000000000000000000000000000000000000000000000000000000000000000000000000000000000000000000000000000000000000000000000000000000000000000000000000000000000000000000000000000000000000000000000000000000000000000000000000000000000000000000000000000000000000000000000000000000000000000000000000000000000000000000000000000000000000000000000000000000000000000000000000000000000000000000000000000000000000000000000000000000000000000000000000000000000000000000000000000",
      "type": "0x2",
      "transactionHash": "0x76712d40ee9f876bf76cd68f0f56a8fd05f5b8be42d9eda5ed6696bdf10ad199",
      "transactionIndex": "0xd2",
      "blockHash": "0xa4d0b972491172b7e7771c97f728477458281159e6149026554db61b0091a8cb",
      "blockNumber": "0x83be3e",
      "gasUsed": "0x2e24f",
      "effectiveGasPrice": "0x8c9fc7",
      "from": "0x9af3222298432fae397a26af2c57b5e7412e82bb",
      "to": null,
      "contractAddress": "0x0f22b52f2c30e663cd2ac4a8db1c518d6d30fd8a"
    },
    {
      "status": "0x1",
      "cumulativeGasUsed": "0x13563c6",
      "logs": [],
      "logsBloom": "0x00000000000000000000000000000000000000000000000000000000000000000000000000000000000000000000000000000000000000000000000000000000000000000000000000000000000000000000000000000000000000000000000000000000000000000000000000000000000000000000000000000000000000000000000000000000000000000000000000000000000000000000000000000000000000000000000000000000000000000000000000000000000000000000000000000000000000000000000000000000000000000000000000000000000000000000000000000000000000000000000000000000000000000000000000000000",
      "type": "0x2",
      "transactionHash": "0x30154d7e49d886d2bed75b2be34fd2fa258016aa2b72083602d65d0027b020bc",
      "transactionIndex": "0xad",
      "blockHash": "0x3f2f74cfc0c626468e852a974ecd75f2584404a365d5b414554174370b7f0916",
      "blockNumber": "0x83be3f",
      "gasUsed": "0x5dc37",
      "effectiveGasPrice": "0x88e9ef",
      "from": "0x9af3222298432fae397a26af2c57b5e7412e82bb",
      "to": null,
      "contractAddress": "0x56e62002b7dc36e2d62bf00b332df677b907fbb2"
    },
    {
      "status": "0x1",
      "cumulativeGasUsed": "0x1ba32fc",
      "logs": [
        {
          "address": "0x56e62002b7dc36e2d62bf00b332df677b907fbb2",
          "topics": [
            "0xc76e544076e6c58f2f3aeefd71e38b40ed70411823aedb3be5e966a2030136e5"
          ],
          "data": "0x000000000000000000000000000000000000000000000000000000000000000100000000000000000000000000000000000000000000000000000000000000400000000000000000000000000000000000000000000000000000000000000000",
          "blockHash": "0x224dcc0dedbe58aef8ef4d54fd4e52e3333c91f58ee76c2e02851ad33e8a1789",
          "blockNumber": "0x83be40",
          "blockTimestamp": "0x685d67e4",
          "transactionHash": "0xab62da85a636726f1efebacedcdb5df5316f7531158cfd6711d4ac9bad8870b4",
          "transactionIndex": "0xce",
          "logIndex": "0x118",
          "removed": false
        }
      ],
      "logsBloom": "0x00000000000000000100000000000000000000000000004000000000000000000000200000000000000000000000000000000000000000000000000000000000000000000000000000000000000000000000000000000000000000000000000000000000000000000000000000000000000000000000000000000000000000000000000000000000000000000000000000000000000000000000000000000000000000000000000000000000000000000000000000000000000000000000000000000000000000000000000000002000000000000020010000000000000000000000000000000000000000000000000000000000000000000000000000000000",
      "type": "0x2",
      "transactionHash": "0xab62da85a636726f1efebacedcdb5df5316f7531158cfd6711d4ac9bad8870b4",
      "transactionIndex": "0xce",
      "blockHash": "0x224dcc0dedbe58aef8ef4d54fd4e52e3333c91f58ee76c2e02851ad33e8a1789",
      "blockNumber": "0x83be40",
      "gasUsed": "0x18ab4",
      "effectiveGasPrice": "0x8524f7",
      "from": "0x9af3222298432fae397a26af2c57b5e7412e82bb",
      "to": "0x56e62002b7dc36e2d62bf00b332df677b907fbb2",
      "contractAddress": null
    },
    {
      "status": "0x1",
      "cumulativeGasUsed": "0x1ce8bd4",
      "logs": [
        {
          "address": "0x56e62002b7dc36e2d62bf00b332df677b907fbb2",
          "topics": [
            "0xee76f3f0dd1ac96e2e6922fa3b2c15c43bc8b4ebabf5e8f93201ece965b41b6d"
          ],
          "data": "0x000000000000000000000000000000000000000000000000000000000000000100000000000000000000000000000000000000000000000000000000000000400000000000000000000000000000000000000000000000000000000000000000",
          "blockHash": "0xff4d34f23fb397a15719dc571ea6841412afaddc882397894c1e5f789f2e440f",
          "blockNumber": "0x83be41",
          "blockTimestamp": "0x685d67f0",
          "transactionHash": "0xea1a6b4c10f29182aa17bdc38af659e60a11db58ceafd360d0734cc255d74d26",
          "transactionIndex": "0x93",
          "logIndex": "0xbd",
          "removed": false
        }
      ],
      "logsBloom": "0x00000000000000000100000000000000000000000000000000000000000000000000200000000000000000000000000000000000800000000000000000000000000000000000000000000000000000000000000000000000000000000000000000000000000000000000000000000000000000000000000000000000000000000000000000000000000000000000000000000000000000000000004000000000000000000000000000000000000000000000000000000010000000000000000000000000000000000000000000002000000000000000000000000000000000000000000000000000000000000000000000000000000000000000000000000000",
      "type": "0x2",
      "transactionHash": "0xea1a6b4c10f29182aa17bdc38af659e60a11db58ceafd360d0734cc255d74d26",
      "transactionIndex": "0x93",
      "blockHash": "0xff4d34f23fb397a15719dc571ea6841412afaddc882397894c1e5f789f2e440f",
      "blockNumber": "0x83be41",
      "gasUsed": "0x17029",
      "effectiveGasPrice": "0x87bb64",
      "from": "0x9af3222298432fae397a26af2c57b5e7412e82bb",
      "to": "0x56e62002b7dc36e2d62bf00b332df677b907fbb2",
      "contractAddress": null
    }
  ],
  "libraries": [],
  "pending": [],
  "returns": {},
  "timestamp": 1750951921,
  "chain": 11155111,
  "commit": "a7e1821"
}